{
  "contractName": "NFTCollection",
  "abi": [
    {
      "inputs": [
        {
          "internalType": "string",
          "name": "baseURI",
          "type": "string"
        },
        {
          "internalType": "string",
          "name": "name",
          "type": "string"
        },
        {
          "internalType": "string",
          "name": "symbol",
          "type": "string"
        }
      ],
      "stateMutability": "nonpayable",
      "type": "constructor"
    },
    {
      "anonymous": false,
      "inputs": [
        {
          "indexed": true,
          "internalType": "address",
          "name": "owner",
          "type": "address"
        },
        {
          "indexed": true,
          "internalType": "address",
          "name": "approved",
          "type": "address"
        },
        {
          "indexed": true,
          "internalType": "uint256",
          "name": "tokenId",
          "type": "uint256"
        }
      ],
      "name": "Approval",
      "type": "event"
    },
    {
      "anonymous": false,
      "inputs": [
        {
          "indexed": true,
          "internalType": "address",
          "name": "owner",
          "type": "address"
        },
        {
          "indexed": true,
          "internalType": "address",
          "name": "operator",
          "type": "address"
        },
        {
          "indexed": false,
          "internalType": "bool",
          "name": "approved",
          "type": "bool"
        }
      ],
      "name": "ApprovalForAll",
      "type": "event"
    },
    {
      "anonymous": false,
      "inputs": [
        {
          "indexed": true,
          "internalType": "address",
          "name": "previousOwner",
          "type": "address"
        },
        {
          "indexed": true,
          "internalType": "address",
          "name": "newOwner",
          "type": "address"
        }
      ],
      "name": "OwnershipTransferred",
      "type": "event"
    },
    {
      "anonymous": false,
      "inputs": [
        {
          "indexed": true,
          "internalType": "address",
          "name": "from",
          "type": "address"
        },
        {
          "indexed": true,
          "internalType": "address",
          "name": "to",
          "type": "address"
        },
        {
          "indexed": true,
          "internalType": "uint256",
          "name": "tokenId",
          "type": "uint256"
        }
      ],
      "name": "Transfer",
      "type": "event"
    },
    {
      "inputs": [],
      "name": "MAX_PER_MINT",
      "outputs": [
        {
          "internalType": "uint256",
          "name": "",
          "type": "uint256"
        }
      ],
      "stateMutability": "view",
      "type": "function",
      "constant": true
    },
    {
      "inputs": [],
      "name": "MAX_SUPPLY",
      "outputs": [
        {
          "internalType": "uint256",
          "name": "",
          "type": "uint256"
        }
      ],
      "stateMutability": "view",
      "type": "function",
      "constant": true
    },
    {
      "inputs": [],
      "name": "PRICE",
      "outputs": [
        {
          "internalType": "uint256",
          "name": "",
          "type": "uint256"
        }
      ],
      "stateMutability": "view",
      "type": "function",
      "constant": true
    },
    {
      "inputs": [
        {
          "internalType": "address",
          "name": "to",
          "type": "address"
        },
        {
          "internalType": "uint256",
          "name": "tokenId",
          "type": "uint256"
        }
      ],
      "name": "approve",
      "outputs": [],
      "stateMutability": "nonpayable",
      "type": "function"
    },
    {
      "inputs": [
        {
          "internalType": "address",
          "name": "owner",
          "type": "address"
        }
      ],
      "name": "balanceOf",
      "outputs": [
        {
          "internalType": "uint256",
          "name": "",
          "type": "uint256"
        }
      ],
      "stateMutability": "view",
      "type": "function",
      "constant": true
    },
    {
      "inputs": [],
      "name": "baseTokenURI",
      "outputs": [
        {
          "internalType": "string",
          "name": "",
          "type": "string"
        }
      ],
      "stateMutability": "view",
      "type": "function",
      "constant": true
    },
    {
      "inputs": [
        {
          "internalType": "uint256",
          "name": "tokenId",
          "type": "uint256"
        }
      ],
      "name": "getApproved",
      "outputs": [
        {
          "internalType": "address",
          "name": "",
          "type": "address"
        }
      ],
      "stateMutability": "view",
      "type": "function",
      "constant": true
    },
    {
      "inputs": [
        {
          "internalType": "address",
          "name": "owner",
          "type": "address"
        },
        {
          "internalType": "address",
          "name": "operator",
          "type": "address"
        }
      ],
      "name": "isApprovedForAll",
      "outputs": [
        {
          "internalType": "bool",
          "name": "",
          "type": "bool"
        }
      ],
      "stateMutability": "view",
      "type": "function",
      "constant": true
    },
    {
      "inputs": [],
      "name": "name",
      "outputs": [
        {
          "internalType": "string",
          "name": "",
          "type": "string"
        }
      ],
      "stateMutability": "view",
      "type": "function",
      "constant": true
    },
    {
      "inputs": [],
      "name": "owner",
      "outputs": [
        {
          "internalType": "address",
          "name": "",
          "type": "address"
        }
      ],
      "stateMutability": "view",
      "type": "function",
      "constant": true
    },
    {
      "inputs": [
        {
          "internalType": "uint256",
          "name": "tokenId",
          "type": "uint256"
        }
      ],
      "name": "ownerOf",
      "outputs": [
        {
          "internalType": "address",
          "name": "",
          "type": "address"
        }
      ],
      "stateMutability": "view",
      "type": "function",
      "constant": true
    },
    {
      "inputs": [],
      "name": "renounceOwnership",
      "outputs": [],
      "stateMutability": "nonpayable",
      "type": "function"
    },
    {
      "inputs": [
        {
          "internalType": "address",
          "name": "from",
          "type": "address"
        },
        {
          "internalType": "address",
          "name": "to",
          "type": "address"
        },
        {
          "internalType": "uint256",
          "name": "tokenId",
          "type": "uint256"
        }
      ],
      "name": "safeTransferFrom",
      "outputs": [],
      "stateMutability": "nonpayable",
      "type": "function"
    },
    {
      "inputs": [
        {
          "internalType": "address",
          "name": "from",
          "type": "address"
        },
        {
          "internalType": "address",
          "name": "to",
          "type": "address"
        },
        {
          "internalType": "uint256",
          "name": "tokenId",
          "type": "uint256"
        },
        {
          "internalType": "bytes",
          "name": "_data",
          "type": "bytes"
        }
      ],
      "name": "safeTransferFrom",
      "outputs": [],
      "stateMutability": "nonpayable",
      "type": "function"
    },
    {
      "inputs": [
        {
          "internalType": "address",
          "name": "operator",
          "type": "address"
        },
        {
          "internalType": "bool",
          "name": "approved",
          "type": "bool"
        }
      ],
      "name": "setApprovalForAll",
      "outputs": [],
      "stateMutability": "nonpayable",
      "type": "function"
    },
    {
      "inputs": [
        {
          "internalType": "bytes4",
          "name": "interfaceId",
          "type": "bytes4"
        }
      ],
      "name": "supportsInterface",
      "outputs": [
        {
          "internalType": "bool",
          "name": "",
          "type": "bool"
        }
      ],
      "stateMutability": "view",
      "type": "function",
      "constant": true
    },
    {
      "inputs": [],
      "name": "symbol",
      "outputs": [
        {
          "internalType": "string",
          "name": "",
          "type": "string"
        }
      ],
      "stateMutability": "view",
      "type": "function",
      "constant": true
    },
    {
      "inputs": [
        {
          "internalType": "uint256",
          "name": "index",
          "type": "uint256"
        }
      ],
      "name": "tokenByIndex",
      "outputs": [
        {
          "internalType": "uint256",
          "name": "",
          "type": "uint256"
        }
      ],
      "stateMutability": "view",
      "type": "function",
      "constant": true
    },
    {
      "inputs": [
        {
          "internalType": "address",
          "name": "owner",
          "type": "address"
        },
        {
          "internalType": "uint256",
          "name": "index",
          "type": "uint256"
        }
      ],
      "name": "tokenOfOwnerByIndex",
      "outputs": [
        {
          "internalType": "uint256",
          "name": "",
          "type": "uint256"
        }
      ],
      "stateMutability": "view",
      "type": "function",
      "constant": true
    },
    {
      "inputs": [
        {
          "internalType": "uint256",
          "name": "tokenId",
          "type": "uint256"
        }
      ],
      "name": "tokenURI",
      "outputs": [
        {
          "internalType": "string",
          "name": "",
          "type": "string"
        }
      ],
      "stateMutability": "view",
      "type": "function",
      "constant": true
    },
    {
      "inputs": [],
      "name": "totalSupply",
      "outputs": [
        {
          "internalType": "uint256",
          "name": "",
          "type": "uint256"
        }
      ],
      "stateMutability": "view",
      "type": "function",
      "constant": true
    },
    {
      "inputs": [
        {
          "internalType": "address",
          "name": "from",
          "type": "address"
        },
        {
          "internalType": "address",
          "name": "to",
          "type": "address"
        },
        {
          "internalType": "uint256",
          "name": "tokenId",
          "type": "uint256"
        }
      ],
      "name": "transferFrom",
      "outputs": [],
      "stateMutability": "nonpayable",
      "type": "function"
    },
    {
      "inputs": [
        {
          "internalType": "address",
          "name": "newOwner",
          "type": "address"
        }
      ],
      "name": "transferOwnership",
      "outputs": [],
      "stateMutability": "nonpayable",
      "type": "function"
    },
    {
      "inputs": [
        {
          "internalType": "string",
          "name": "_baseTokenURI",
          "type": "string"
        }
      ],
      "name": "setBaseURI",
      "outputs": [],
      "stateMutability": "nonpayable",
      "type": "function"
    },
    {
      "inputs": [
        {
          "internalType": "uint256",
          "name": "_count",
          "type": "uint256"
        }
      ],
      "name": "mintNFTs",
      "outputs": [],
      "stateMutability": "payable",
      "type": "function",
      "payable": true
    },
    {
      "inputs": [
        {
          "internalType": "address",
          "name": "_owner",
          "type": "address"
        }
      ],
      "name": "tokensOfOwner",
      "outputs": [
        {
          "internalType": "uint256[]",
          "name": "",
          "type": "uint256[]"
        }
      ],
      "stateMutability": "view",
      "type": "function",
      "constant": true
    },
    {
      "inputs": [],
      "name": "withdraw",
      "outputs": [],
      "stateMutability": "payable",
      "type": "function",
      "payable": true
    }
  ],
  "bytecode": "0x60806040523480156200001157600080fd5b506040516200469038038062004690833981810160405281019062000037919062000378565b81818160009080519060200190620000519291906200024a565b5080600190805190602001906200006a9291906200024a565b5050506200008d62000081620000a760201b60201c565b620000af60201b60201c565b6200009e836200017560201b60201c565b50505062000638565b600033905090565b6000600a60009054906101000a900473ffffffffffffffffffffffffffffffffffffffff16905081600a60006101000a81548173ffffffffffffffffffffffffffffffffffffffff021916908373ffffffffffffffffffffffffffffffffffffffff1602179055508173ffffffffffffffffffffffffffffffffffffffff168173ffffffffffffffffffffffffffffffffffffffff167f8be0079c531659141344cd1fd0a4f28419497f9722a3daafe3b4186f6b6457e060405160405180910390a35050565b62000185620000a760201b60201c565b73ffffffffffffffffffffffffffffffffffffffff16620001ab6200022060201b60201c565b73ffffffffffffffffffffffffffffffffffffffff161462000204576040517f08c379a0000000000000000000000000000000000000000000000000000000008152600401620001fb9062000458565b60405180910390fd5b80600c90805190602001906200021c9291906200024a565b5050565b6000600a60009054906101000a900473ffffffffffffffffffffffffffffffffffffffff16905090565b828054620002589062000520565b90600052602060002090601f0160209004810192826200027c5760008555620002c8565b82601f106200029757805160ff1916838001178555620002c8565b82800160010185558215620002c8579182015b82811115620002c7578251825591602001919060010190620002aa565b5b509050620002d79190620002db565b5090565b5b80821115620002f6576000816000905550600101620002dc565b5090565b6000620003116200030b84620004a3565b6200047a565b90508281526020810184848401111562000330576200032f620005ef565b5b6200033d848285620004ea565b509392505050565b600082601f8301126200035d576200035c620005ea565b5b81516200036f848260208601620002fa565b91505092915050565b600080600060608486031215620003945762000393620005f9565b5b600084015167ffffffffffffffff811115620003b557620003b4620005f4565b5b620003c38682870162000345565b935050602084015167ffffffffffffffff811115620003e757620003e6620005f4565b5b620003f58682870162000345565b925050604084015167ffffffffffffffff811115620004195762000418620005f4565b5b620004278682870162000345565b9150509250925092565b600062000440602083620004d9565b91506200044d826200060f565b602082019050919050565b60006020820190508181036000830152620004738162000431565b9050919050565b60006200048662000499565b905062000494828262000556565b919050565b6000604051905090565b600067ffffffffffffffff821115620004c157620004c0620005bb565b5b620004cc82620005fe565b9050602081019050919050565b600082825260208201905092915050565b60005b838110156200050a578082015181840152602081019050620004ed565b838111156200051a576000848401525b50505050565b600060028204905060018216806200053957607f821691505b6020821081141562000550576200054f6200058c565b5b50919050565b6200056182620005fe565b810181811067ffffffffffffffff82111715620005835762000582620005bb565b5b80604052505050565b7f4e487b7100000000000000000000000000000000000000000000000000000000600052602260045260246000fd5b7f4e487b7100000000000000000000000000000000000000000000000000000000600052604160045260246000fd5b600080fd5b600080fd5b600080fd5b600080fd5b6000601f19601f8301169050919050565b7f4f776e61626c653a2063616c6c6572206973206e6f7420746865206f776e6572600082015250565b61404880620006486000396000f3fe60806040526004361061019c5760003560e01c806355f804b3116100ec57806395d89b411161008a578063c87b56dd11610064578063c87b56dd146105ac578063d547cfb7146105e9578063e985e9c514610614578063f2fde38b146106515761019c565b806395d89b411461052f578063a22cb4651461055a578063b88d4fde146105835761019c565b8063715018a6116100c6578063715018a6146104855780638462151c1461049c5780638d859f3e146104d95780638da5cb5b146105045761019c565b806355f804b3146103e25780636352211e1461040b57806370a08231146104485761019c565b806323b872dd116101595780633b4b1381116101335780633b4b1381146103565780633ccfd60b1461037257806342842e0e1461037c5780634f6ccce7146103a55761019c565b806323b872dd146102c55780632f745c59146102ee57806332cb6b0c1461032b5761019c565b806301ffc9a7146101a157806306fdde03146101de578063081812fc14610209578063095ea7b31461024657806309d42b301461026f57806318160ddd1461029a575b600080fd5b3480156101ad57600080fd5b506101c860048036038101906101c39190612b48565b61067a565b6040516101d59190613177565b60405180910390f35b3480156101ea57600080fd5b506101f36106f4565b6040516102009190613192565b60405180910390f35b34801561021557600080fd5b50610230600480360381019061022b9190612beb565b610786565b60405161023d91906130ee565b60405180910390f35b34801561025257600080fd5b5061026d60048036038101906102689190612b08565b61080b565b005b34801561027b57600080fd5b50610284610923565b6040516102919190613494565b60405180910390f35b3480156102a657600080fd5b506102af610928565b6040516102bc9190613494565b60405180910390f35b3480156102d157600080fd5b506102ec60048036038101906102e791906129f2565b610935565b005b3480156102fa57600080fd5b5061031560048036038101906103109190612b08565b610995565b6040516103229190613494565b60405180910390f35b34801561033757600080fd5b50610340610a3a565b60405161034d9190613494565b60405180910390f35b610370600480360381019061036b9190612beb565b610a3f565b005b61037a610b79565b005b34801561038857600080fd5b506103a3600480360381019061039e91906129f2565b610ced565b005b3480156103b157600080fd5b506103cc60048036038101906103c79190612beb565b610d0d565b6040516103d99190613494565b60405180910390f35b3480156103ee57600080fd5b5061040960048036038101906104049190612ba2565b610d7e565b005b34801561041757600080fd5b50610432600480360381019061042d9190612beb565b610e14565b60405161043f91906130ee565b60405180910390f35b34801561045457600080fd5b5061046f600480360381019061046a9190612985565b610ec6565b60405161047c9190613494565b60405180910390f35b34801561049157600080fd5b5061049a610f7e565b005b3480156104a857600080fd5b506104c360048036038101906104be9190612985565b611006565b6040516104d09190613155565b60405180910390f35b3480156104e557600080fd5b506104ee6110b4565b6040516104fb9190613494565b60405180910390f35b34801561051057600080fd5b506105196110be565b60405161052691906130ee565b60405180910390f35b34801561053b57600080fd5b506105446110e8565b6040516105519190613192565b60405180910390f35b34801561056657600080fd5b50610581600480360381019061057c9190612ac8565b61117a565b005b34801561058f57600080fd5b506105aa60048036038101906105a59190612a45565b611190565b005b3480156105b857600080fd5b506105d360048036038101906105ce9190612beb565b6111f2565b6040516105e09190613192565b60405180910390f35b3480156105f557600080fd5b506105fe611299565b60405161060b9190613192565b60405180910390f35b34801561062057600080fd5b5061063b600480360381019061063691906129b2565b611327565b6040516106489190613177565b60405180910390f35b34801561065d57600080fd5b5061067860048036038101906106739190612985565b6113bb565b005b60007f780e9d63000000000000000000000000000000000000000000000000000000007bffffffffffffffffffffffffffffffffffffffffffffffffffffffff1916827bffffffffffffffffffffffffffffffffffffffffffffffffffffffff191614806106ed57506106ec826114b3565b5b9050919050565b60606000805461070390613788565b80601f016020809104026020016040519081016040528092919081815260200182805461072f90613788565b801561077c5780601f106107515761010080835404028352916020019161077c565b820191906000526020600020905b81548152906001019060200180831161075f57829003601f168201915b5050505050905090565b600061079182611595565b6107d0576040517f08c379a00000000000000000000000000000000000000000000000000000000081526004016107c790613374565b60405180910390fd5b6004600083815260200190815260200160002060009054906101000a900473ffffffffffffffffffffffffffffffffffffffff169050919050565b600061081682610e14565b90508073ffffffffffffffffffffffffffffffffffffffff168373ffffffffffffffffffffffffffffffffffffffff161415610887576040517f08c379a000000000000000000000000000000000000000000000000000000000815260040161087e906133d4565b60405180910390fd5b8073ffffffffffffffffffffffffffffffffffffffff166108a6611601565b73ffffffffffffffffffffffffffffffffffffffff1614806108d557506108d4816108cf611601565b611327565b5b610914576040517f08c379a000000000000000000000000000000000000000000000000000000000815260040161090b906132d4565b60405180910390fd5b61091e8383611609565b505050565b600581565b6000600880549050905090565b610946610940611601565b826116c2565b610985576040517f08c379a000000000000000000000000000000000000000000000000000000000815260040161097c90613434565b60405180910390fd5b6109908383836117a0565b505050565b60006109a083610ec6565b82106109e1576040517f08c379a00000000000000000000000000000000000000000000000000000000081526004016109d8906131b4565b60405180910390fd5b600660008473ffffffffffffffffffffffffffffffffffffffff1673ffffffffffffffffffffffffffffffffffffffff168152602001908152602001600020600083815260200190815260200160002054905092915050565b606481565b6000610a4b600b611a07565b90506064610a628383611a1590919063ffffffff16565b1115610aa3576040517f08c379a0000000000000000000000000000000000000000000000000000000008152600401610a9a90613454565b60405180910390fd5b600082118015610ab4575060058211155b610af3576040517f08c379a0000000000000000000000000000000000000000000000000000000008152600401610aea906133f4565b60405180910390fd5b610b0c826509184e72a000611a2b90919063ffffffff16565b341015610b4e576040517f08c379a0000000000000000000000000000000000000000000000000000000008152600401610b4590613294565b60405180910390fd5b60005b82811015610b7457610b61611a41565b8080610b6c906137eb565b915050610b51565b505050565b610b81611601565b73ffffffffffffffffffffffffffffffffffffffff16610b9f6110be565b73ffffffffffffffffffffffffffffffffffffffff1614610bf5576040517f08c379a0000000000000000000000000000000000000000000000000000000008152600401610bec90613394565b60405180910390fd5b600047905060008111610c3d576040517f08c379a0000000000000000000000000000000000000000000000000000000008152600401610c3490613354565b60405180910390fd5b60003373ffffffffffffffffffffffffffffffffffffffff1682604051610c63906130d9565b60006040518083038185875af1925050503d8060008114610ca0576040519150601f19603f3d011682016040523d82523d6000602084013e610ca5565b606091505b5050905080610ce9576040517f08c379a0000000000000000000000000000000000000000000000000000000008152600401610ce090613414565b60405180910390fd5b5050565b610d0883838360405180602001604052806000815250611190565b505050565b6000610d17610928565b8210610d58576040517f08c379a0000000000000000000000000000000000000000000000000000000008152600401610d4f90613474565b60405180910390fd5b60088281548110610d6c57610d6b613921565b5b90600052602060002001549050919050565b610d86611601565b73ffffffffffffffffffffffffffffffffffffffff16610da46110be565b73ffffffffffffffffffffffffffffffffffffffff1614610dfa576040517f08c379a0000000000000000000000000000000000000000000000000000000008152600401610df190613394565b60405180910390fd5b80600c9080519060200190610e10929190612799565b5050565b6000806002600084815260200190815260200160002060009054906101000a900473ffffffffffffffffffffffffffffffffffffffff169050600073ffffffffffffffffffffffffffffffffffffffff168173ffffffffffffffffffffffffffffffffffffffff161415610ebd576040517f08c379a0000000000000000000000000000000000000000000000000000000008152600401610eb490613314565b60405180910390fd5b80915050919050565b60008073ffffffffffffffffffffffffffffffffffffffff168273ffffffffffffffffffffffffffffffffffffffff161415610f37576040517f08c379a0000000000000000000000000000000000000000000000000000000008152600401610f2e906132f4565b60405180910390fd5b600360008373ffffffffffffffffffffffffffffffffffffffff1673ffffffffffffffffffffffffffffffffffffffff168152602001908152602001600020549050919050565b610f86611601565b73ffffffffffffffffffffffffffffffffffffffff16610fa46110be565b73ffffffffffffffffffffffffffffffffffffffff1614610ffa576040517f08c379a0000000000000000000000000000000000000000000000000000000008152600401610ff190613394565b60405180910390fd5b6110046000611a66565b565b6060600061101383610ec6565b905060008167ffffffffffffffff81111561103157611030613950565b5b60405190808252806020026020018201604052801561105f5781602001602082028036833780820191505090505b50905060005b828110156110a9576110778582610995565b82828151811061108a57611089613921565b5b60200260200101818152505080806110a1906137eb565b915050611065565b508092505050919050565b6509184e72a00081565b6000600a60009054906101000a900473ffffffffffffffffffffffffffffffffffffffff16905090565b6060600180546110f790613788565b80601f016020809104026020016040519081016040528092919081815260200182805461112390613788565b80156111705780601f1061114557610100808354040283529160200191611170565b820191906000526020600020905b81548152906001019060200180831161115357829003601f168201915b5050505050905090565b61118c611185611601565b8383611b2c565b5050565b6111a161119b611601565b836116c2565b6111e0576040517f08c379a00000000000000000000000000000000000000000000000000000000081526004016111d790613434565b60405180910390fd5b6111ec84848484611c99565b50505050565b60606111fd82611595565b61123c576040517f08c379a0000000000000000000000000000000000000000000000000000000008152600401611233906133b4565b60405180910390fd5b6000611246611cf5565b905060008151116112665760405180602001604052806000815250611291565b8061127084611d87565b6040516020016112819291906130b5565b6040516020818303038152906040525b915050919050565b600c80546112a690613788565b80601f01602080910402602001604051908101604052809291908181526020018280546112d290613788565b801561131f5780601f106112f45761010080835404028352916020019161131f565b820191906000526020600020905b81548152906001019060200180831161130257829003601f168201915b505050505081565b6000600560008473ffffffffffffffffffffffffffffffffffffffff1673ffffffffffffffffffffffffffffffffffffffff16815260200190815260200160002060008373ffffffffffffffffffffffffffffffffffffffff1673ffffffffffffffffffffffffffffffffffffffff16815260200190815260200160002060009054906101000a900460ff16905092915050565b6113c3611601565b73ffffffffffffffffffffffffffffffffffffffff166113e16110be565b73ffffffffffffffffffffffffffffffffffffffff1614611437576040517f08c379a000000000000000000000000000000000000000000000000000000000815260040161142e90613394565b60405180910390fd5b600073ffffffffffffffffffffffffffffffffffffffff168173ffffffffffffffffffffffffffffffffffffffff1614156114a7576040517f08c379a000000000000000000000000000000000000000000000000000000000815260040161149e906131f4565b60405180910390fd5b6114b081611a66565b50565b60007f80ac58cd000000000000000000000000000000000000000000000000000000007bffffffffffffffffffffffffffffffffffffffffffffffffffffffff1916827bffffffffffffffffffffffffffffffffffffffffffffffffffffffff1916148061157e57507f5b5e139f000000000000000000000000000000000000000000000000000000007bffffffffffffffffffffffffffffffffffffffffffffffffffffffff1916827bffffffffffffffffffffffffffffffffffffffffffffffffffffffff1916145b8061158e575061158d82611ee8565b5b9050919050565b60008073ffffffffffffffffffffffffffffffffffffffff166002600084815260200190815260200160002060009054906101000a900473ffffffffffffffffffffffffffffffffffffffff1673ffffffffffffffffffffffffffffffffffffffff1614159050919050565b600033905090565b816004600083815260200190815260200160002060006101000a81548173ffffffffffffffffffffffffffffffffffffffff021916908373ffffffffffffffffffffffffffffffffffffffff160217905550808273ffffffffffffffffffffffffffffffffffffffff1661167c83610e14565b73ffffffffffffffffffffffffffffffffffffffff167f8c5be1e5ebec7d5bd14f71427d1e84f3dd0314c0f7b2291e5b200ac8c7c3b92560405160405180910390a45050565b60006116cd82611595565b61170c576040517f08c379a0000000000000000000000000000000000000000000000000000000008152600401611703906132b4565b60405180910390fd5b600061171783610e14565b90508073ffffffffffffffffffffffffffffffffffffffff168473ffffffffffffffffffffffffffffffffffffffff16148061178657508373ffffffffffffffffffffffffffffffffffffffff1661176e84610786565b73ffffffffffffffffffffffffffffffffffffffff16145b8061179757506117968185611327565b5b91505092915050565b8273ffffffffffffffffffffffffffffffffffffffff166117c082610e14565b73ffffffffffffffffffffffffffffffffffffffff1614611816576040517f08c379a000000000000000000000000000000000000000000000000000000000815260040161180d90613214565b60405180910390fd5b600073ffffffffffffffffffffffffffffffffffffffff168273ffffffffffffffffffffffffffffffffffffffff161415611886576040517f08c379a000000000000000000000000000000000000000000000000000000000815260040161187d90613254565b60405180910390fd5b611891838383611f52565b61189c600082611609565b6001600360008573ffffffffffffffffffffffffffffffffffffffff1673ffffffffffffffffffffffffffffffffffffffff16815260200190815260200160002060008282546118ec919061369e565b925050819055506001600360008473ffffffffffffffffffffffffffffffffffffffff1673ffffffffffffffffffffffffffffffffffffffff168152602001908152602001600020600082825461194391906135bd565b92505081905550816002600083815260200190815260200160002060006101000a81548173ffffffffffffffffffffffffffffffffffffffff021916908373ffffffffffffffffffffffffffffffffffffffff160217905550808273ffffffffffffffffffffffffffffffffffffffff168473ffffffffffffffffffffffffffffffffffffffff167fddf252ad1be2c89b69c2b068fc378daa952ba7f163c4a11628f55a4df523b3ef60405160405180910390a4611a02838383612066565b505050565b600081600001549050919050565b60008183611a2391906135bd565b905092915050565b60008183611a399190613644565b905092915050565b6000611a4d600b611a07565b9050611a59338261206b565b611a63600b612089565b50565b6000600a60009054906101000a900473ffffffffffffffffffffffffffffffffffffffff16905081600a60006101000a81548173ffffffffffffffffffffffffffffffffffffffff021916908373ffffffffffffffffffffffffffffffffffffffff1602179055508173ffffffffffffffffffffffffffffffffffffffff168173ffffffffffffffffffffffffffffffffffffffff167f8be0079c531659141344cd1fd0a4f28419497f9722a3daafe3b4186f6b6457e060405160405180910390a35050565b8173ffffffffffffffffffffffffffffffffffffffff168373ffffffffffffffffffffffffffffffffffffffff161415611b9b576040517f08c379a0000000000000000000000000000000000000000000000000000000008152600401611b9290613274565b60405180910390fd5b80600560008573ffffffffffffffffffffffffffffffffffffffff1673ffffffffffffffffffffffffffffffffffffffff16815260200190815260200160002060008473ffffffffffffffffffffffffffffffffffffffff1673ffffffffffffffffffffffffffffffffffffffff16815260200190815260200160002060006101000a81548160ff0219169083151502179055508173ffffffffffffffffffffffffffffffffffffffff168373ffffffffffffffffffffffffffffffffffffffff167f17307eab39ab6107e8899845ad3d59bd9653f200f220920489ca2b5937696c3183604051611c8c9190613177565b60405180910390a3505050565b611ca48484846117a0565b611cb08484848461209f565b611cef576040517f08c379a0000000000000000000000000000000000000000000000000000000008152600401611ce6906131d4565b60405180910390fd5b50505050565b6060600c8054611d0490613788565b80601f0160208091040260200160405190810160405280929190818152602001828054611d3090613788565b8015611d7d5780601f10611d5257610100808354040283529160200191611d7d565b820191906000526020600020905b815481529060010190602001808311611d6057829003601f168201915b5050505050905090565b60606000821415611dcf576040518060400160405280600181526020017f30000000000000000000000000000000000000000000000000000000000000008152509050611ee3565b600082905060005b60008214611e01578080611dea906137eb565b915050600a82611dfa9190613613565b9150611dd7565b60008167ffffffffffffffff811115611e1d57611e1c613950565b5b6040519080825280601f01601f191660200182016040528015611e4f5781602001600182028036833780820191505090505b5090505b60008514611edc57600182611e68919061369e565b9150600a85611e779190613834565b6030611e8391906135bd565b60f81b818381518110611e9957611e98613921565b5b60200101907effffffffffffffffffffffffffffffffffffffffffffffffffffffffffffff1916908160001a905350600a85611ed59190613613565b9450611e53565b8093505050505b919050565b60007f01ffc9a7000000000000000000000000000000000000000000000000000000007bffffffffffffffffffffffffffffffffffffffffffffffffffffffff1916827bffffffffffffffffffffffffffffffffffffffffffffffffffffffff1916149050919050565b611f5d838383612236565b600073ffffffffffffffffffffffffffffffffffffffff168373ffffffffffffffffffffffffffffffffffffffff161415611fa057611f9b8161223b565b611fdf565b8173ffffffffffffffffffffffffffffffffffffffff168373ffffffffffffffffffffffffffffffffffffffff1614611fde57611fdd8382612284565b5b5b600073ffffffffffffffffffffffffffffffffffffffff168273ffffffffffffffffffffffffffffffffffffffff1614156120225761201d816123f1565b612061565b8273ffffffffffffffffffffffffffffffffffffffff168273ffffffffffffffffffffffffffffffffffffffff16146120605761205f82826124c2565b5b5b505050565b505050565b612085828260405180602001604052806000815250612541565b5050565b6001816000016000828254019250508190555050565b60006120c08473ffffffffffffffffffffffffffffffffffffffff1661259c565b15612229578373ffffffffffffffffffffffffffffffffffffffff1663150b7a026120e9611601565b8786866040518563ffffffff1660e01b815260040161210b9493929190613109565b602060405180830381600087803b15801561212557600080fd5b505af192505050801561215657506040513d601f19601f820116820180604052508101906121539190612b75565b60015b6121d9573d8060008114612186576040519150601f19603f3d011682016040523d82523d6000602084013e61218b565b606091505b506000815114156121d1576040517f08c379a00000000000000000000000000000000000000000000000000000000081526004016121c8906131d4565b60405180910390fd5b805181602001fd5b63150b7a0260e01b7bffffffffffffffffffffffffffffffffffffffffffffffffffffffff1916817bffffffffffffffffffffffffffffffffffffffffffffffffffffffff19161491505061222e565b600190505b949350505050565b505050565b6008805490506009600083815260200190815260200160002081905550600881908060018154018082558091505060019003906000526020600020016000909190919091505550565b6000600161229184610ec6565b61229b919061369e565b9050600060076000848152602001908152602001600020549050818114612380576000600660008673ffffffffffffffffffffffffffffffffffffffff1673ffffffffffffffffffffffffffffffffffffffff168152602001908152602001600020600084815260200190815260200160002054905080600660008773ffffffffffffffffffffffffffffffffffffffff1673ffffffffffffffffffffffffffffffffffffffff168152602001908152602001600020600084815260200190815260200160002081905550816007600083815260200190815260200160002081905550505b6007600084815260200190815260200160002060009055600660008573ffffffffffffffffffffffffffffffffffffffff1673ffffffffffffffffffffffffffffffffffffffff16815260200190815260200160002060008381526020019081526020016000206000905550505050565b60006001600880549050612405919061369e565b905060006009600084815260200190815260200160002054905060006008838154811061243557612434613921565b5b90600052602060002001549050806008838154811061245757612456613921565b5b9060005260206000200181905550816009600083815260200190815260200160002081905550600960008581526020019081526020016000206000905560088054806124a6576124a56138f2565b5b6001900381819060005260206000200160009055905550505050565b60006124cd83610ec6565b905081600660008573ffffffffffffffffffffffffffffffffffffffff1673ffffffffffffffffffffffffffffffffffffffff168152602001908152602001600020600083815260200190815260200160002081905550806007600084815260200190815260200160002081905550505050565b61254b83836125bf565b612558600084848461209f565b612597576040517f08c379a000000000000000000000000000000000000000000000000000000000815260040161258e906131d4565b60405180910390fd5b505050565b6000808273ffffffffffffffffffffffffffffffffffffffff163b119050919050565b600073ffffffffffffffffffffffffffffffffffffffff168273ffffffffffffffffffffffffffffffffffffffff16141561262f576040517f08c379a000000000000000000000000000000000000000000000000000000000815260040161262690613334565b60405180910390fd5b61263881611595565b15612678576040517f08c379a000000000000000000000000000000000000000000000000000000000815260040161266f90613234565b60405180910390fd5b61268460008383611f52565b6001600360008473ffffffffffffffffffffffffffffffffffffffff1673ffffffffffffffffffffffffffffffffffffffff16815260200190815260200160002060008282546126d491906135bd565b92505081905550816002600083815260200190815260200160002060006101000a81548173ffffffffffffffffffffffffffffffffffffffff021916908373ffffffffffffffffffffffffffffffffffffffff160217905550808273ffffffffffffffffffffffffffffffffffffffff16600073ffffffffffffffffffffffffffffffffffffffff167fddf252ad1be2c89b69c2b068fc378daa952ba7f163c4a11628f55a4df523b3ef60405160405180910390a461279560008383612066565b5050565b8280546127a590613788565b90600052602060002090601f0160209004810192826127c7576000855561280e565b82601f106127e057805160ff191683800117855561280e565b8280016001018555821561280e579182015b8281111561280d5782518255916020019190600101906127f2565b5b50905061281b919061281f565b5090565b5b80821115612838576000816000905550600101612820565b5090565b600061284f61284a846134d4565b6134af565b90508281526020810184848401111561286b5761286a613984565b5b612876848285613746565b509392505050565b600061289161288c84613505565b6134af565b9050828152602081018484840111156128ad576128ac613984565b5b6128b8848285613746565b509392505050565b6000813590506128cf81613fb6565b92915050565b6000813590506128e481613fcd565b92915050565b6000813590506128f981613fe4565b92915050565b60008151905061290e81613fe4565b92915050565b600082601f8301126129295761292861397f565b5b813561293984826020860161283c565b91505092915050565b600082601f8301126129575761295661397f565b5b813561296784826020860161287e565b91505092915050565b60008135905061297f81613ffb565b92915050565b60006020828403121561299b5761299a61398e565b5b60006129a9848285016128c0565b91505092915050565b600080604083850312156129c9576129c861398e565b5b60006129d7858286016128c0565b92505060206129e8858286016128c0565b9150509250929050565b600080600060608486031215612a0b57612a0a61398e565b5b6000612a19868287016128c0565b9350506020612a2a868287016128c0565b9250506040612a3b86828701612970565b9150509250925092565b60008060008060808587031215612a5f57612a5e61398e565b5b6000612a6d878288016128c0565b9450506020612a7e878288016128c0565b9350506040612a8f87828801612970565b925050606085013567ffffffffffffffff811115612ab057612aaf613989565b5b612abc87828801612914565b91505092959194509250565b60008060408385031215612adf57612ade61398e565b5b6000612aed858286016128c0565b9250506020612afe858286016128d5565b9150509250929050565b60008060408385031215612b1f57612b1e61398e565b5b6000612b2d858286016128c0565b9250506020612b3e85828601612970565b9150509250929050565b600060208284031215612b5e57612b5d61398e565b5b6000612b6c848285016128ea565b91505092915050565b600060208284031215612b8b57612b8a61398e565b5b6000612b99848285016128ff565b91505092915050565b600060208284031215612bb857612bb761398e565b5b600082013567ffffffffffffffff811115612bd657612bd5613989565b5b612be284828501612942565b91505092915050565b600060208284031215612c0157612c0061398e565b5b6000612c0f84828501612970565b91505092915050565b6000612c248383613097565b60208301905092915050565b612c39816136d2565b82525050565b6000612c4a82613546565b612c548185613574565b9350612c5f83613536565b8060005b83811015612c90578151612c778882612c18565b9750612c8283613567565b925050600181019050612c63565b5085935050505092915050565b612ca6816136e4565b82525050565b6000612cb782613551565b612cc18185613585565b9350612cd1818560208601613755565b612cda81613993565b840191505092915050565b6000612cf08261355c565b612cfa81856135a1565b9350612d0a818560208601613755565b612d1381613993565b840191505092915050565b6000612d298261355c565b612d3381856135b2565b9350612d43818560208601613755565b80840191505092915050565b6000612d5c602b836135a1565b9150612d67826139a4565b604082019050919050565b6000612d7f6032836135a1565b9150612d8a826139f3565b604082019050919050565b6000612da26026836135a1565b9150612dad82613a42565b604082019050919050565b6000612dc56025836135a1565b9150612dd082613a91565b604082019050919050565b6000612de8601c836135a1565b9150612df382613ae0565b602082019050919050565b6000612e0b6024836135a1565b9150612e1682613b09565b604082019050919050565b6000612e2e6019836135a1565b9150612e3982613b58565b602082019050919050565b6000612e516022836135a1565b9150612e5c82613b81565b604082019050919050565b6000612e74602c836135a1565b9150612e7f82613bd0565b604082019050919050565b6000612e976038836135a1565b9150612ea282613c1f565b604082019050919050565b6000612eba602a836135a1565b9150612ec582613c6e565b604082019050919050565b6000612edd6029836135a1565b9150612ee882613cbd565b604082019050919050565b6000612f006020836135a1565b9150612f0b82613d0c565b602082019050919050565b6000612f236019836135a1565b9150612f2e82613d35565b602082019050919050565b6000612f46602c836135a1565b9150612f5182613d5e565b604082019050919050565b6000612f696020836135a1565b9150612f7482613dad565b602082019050919050565b6000612f8c602f836135a1565b9150612f9782613dd6565b604082019050919050565b6000612faf6021836135a1565b9150612fba82613e25565b604082019050919050565b6000612fd26035836135a1565b9150612fdd82613e74565b604082019050919050565b6000612ff5600083613596565b915061300082613ec3565b600082019050919050565b60006130186010836135a1565b915061302382613ec6565b602082019050919050565b600061303b6031836135a1565b915061304682613eef565b604082019050919050565b600061305e601c836135a1565b915061306982613f3e565b602082019050919050565b6000613081602c836135a1565b915061308c82613f67565b604082019050919050565b6130a08161373c565b82525050565b6130af8161373c565b82525050565b60006130c18285612d1e565b91506130cd8284612d1e565b91508190509392505050565b60006130e482612fe8565b9150819050919050565b60006020820190506131036000830184612c30565b92915050565b600060808201905061311e6000830187612c30565b61312b6020830186612c30565b61313860408301856130a6565b818103606083015261314a8184612cac565b905095945050505050565b6000602082019050818103600083015261316f8184612c3f565b905092915050565b600060208201905061318c6000830184612c9d565b92915050565b600060208201905081810360008301526131ac8184612ce5565b905092915050565b600060208201905081810360008301526131cd81612d4f565b9050919050565b600060208201905081810360008301526131ed81612d72565b9050919050565b6000602082019050818103600083015261320d81612d95565b9050919050565b6000602082019050818103600083015261322d81612db8565b9050919050565b6000602082019050818103600083015261324d81612ddb565b9050919050565b6000602082019050818103600083015261326d81612dfe565b9050919050565b6000602082019050818103600083015261328d81612e21565b9050919050565b600060208201905081810360008301526132ad81612e44565b9050919050565b600060208201905081810360008301526132cd81612e67565b9050919050565b600060208201905081810360008301526132ed81612e8a565b9050919050565b6000602082019050818103600083015261330d81612ead565b9050919050565b6000602082019050818103600083015261332d81612ed0565b9050919050565b6000602082019050818103600083015261334d81612ef3565b9050919050565b6000602082019050818103600083015261336d81612f16565b9050919050565b6000602082019050818103600083015261338d81612f39565b9050919050565b600060208201905081810360008301526133ad81612f5c565b9050919050565b600060208201905081810360008301526133cd81612f7f565b9050919050565b600060208201905081810360008301526133ed81612fa2565b9050919050565b6000602082019050818103600083015261340d81612fc5565b9050919050565b6000602082019050818103600083015261342d8161300b565b9050919050565b6000602082019050818103600083015261344d8161302e565b9050919050565b6000602082019050818103600083015261346d81613051565b9050919050565b6000602082019050818103600083015261348d81613074565b9050919050565b60006020820190506134a960008301846130a6565b92915050565b60006134b96134ca565b90506134c582826137ba565b919050565b6000604051905090565b600067ffffffffffffffff8211156134ef576134ee613950565b5b6134f882613993565b9050602081019050919050565b600067ffffffffffffffff8211156135205761351f613950565b5b61352982613993565b9050602081019050919050565b6000819050602082019050919050565b600081519050919050565b600081519050919050565b600081519050919050565b6000602082019050919050565b600082825260208201905092915050565b600082825260208201905092915050565b600081905092915050565b600082825260208201905092915050565b600081905092915050565b60006135c88261373c565b91506135d38361373c565b9250827fffffffffffffffffffffffffffffffffffffffffffffffffffffffffffffffff0382111561360857613607613865565b5b828201905092915050565b600061361e8261373c565b91506136298361373c565b92508261363957613638613894565b5b828204905092915050565b600061364f8261373c565b915061365a8361373c565b9250817fffffffffffffffffffffffffffffffffffffffffffffffffffffffffffffffff048311821515161561369357613692613865565b5b828202905092915050565b60006136a98261373c565b91506136b48361373c565b9250828210156136c7576136c6613865565b5b828203905092915050565b60006136dd8261371c565b9050919050565b60008115159050919050565b60007fffffffff0000000000000000000000000000000000000000000000000000000082169050919050565b600073ffffffffffffffffffffffffffffffffffffffff82169050919050565b6000819050919050565b82818337600083830152505050565b60005b83811015613773578082015181840152602081019050613758565b83811115613782576000848401525b50505050565b600060028204905060018216806137a057607f821691505b602082108114156137b4576137b36138c3565b5b50919050565b6137c382613993565b810181811067ffffffffffffffff821117156137e2576137e1613950565b5b80604052505050565b60006137f68261373c565b91507fffffffffffffffffffffffffffffffffffffffffffffffffffffffffffffffff82141561382957613828613865565b5b600182019050919050565b600061383f8261373c565b915061384a8361373c565b92508261385a57613859613894565b5b828206905092915050565b7f4e487b7100000000000000000000000000000000000000000000000000000000600052601160045260246000fd5b7f4e487b7100000000000000000000000000000000000000000000000000000000600052601260045260246000fd5b7f4e487b7100000000000000000000000000000000000000000000000000000000600052602260045260246000fd5b7f4e487b7100000000000000000000000000000000000000000000000000000000600052603160045260246000fd5b7f4e487b7100000000000000000000000000000000000000000000000000000000600052603260045260246000fd5b7f4e487b7100000000000000000000000000000000000000000000000000000000600052604160045260246000fd5b600080fd5b600080fd5b600080fd5b600080fd5b6000601f19601f8301169050919050565b7f455243373231456e756d657261626c653a206f776e657220696e646578206f7560008201527f74206f6620626f756e6473000000000000000000000000000000000000000000602082015250565b7f4552433732313a207472616e7366657220746f206e6f6e20455243373231526560008201527f63656976657220696d706c656d656e7465720000000000000000000000000000602082015250565b7f4f776e61626c653a206e6577206f776e657220697320746865207a65726f206160008201527f6464726573730000000000000000000000000000000000000000000000000000602082015250565b7f4552433732313a207472616e736665722066726f6d20696e636f72726563742060008201527f6f776e6572000000000000000000000000000000000000000000000000000000602082015250565b7f4552433732313a20746f6b656e20616c7265616479206d696e74656400000000600082015250565b7f4552433732313a207472616e7366657220746f20746865207a65726f2061646460008201527f7265737300000000000000000000000000000000000000000000000000000000602082015250565b7f4552433732313a20617070726f766520746f2063616c6c657200000000000000600082015250565b7f4e6f7420656e6f75676820657468657220746f207075726368617365204e465460008201527f732e000000000000000000000000000000000000000000000000000000000000602082015250565b7f4552433732313a206f70657261746f7220717565727920666f72206e6f6e657860008201527f697374656e7420746f6b656e0000000000000000000000000000000000000000602082015250565b7f4552433732313a20617070726f76652063616c6c6572206973206e6f74206f7760008201527f6e6572206e6f7220617070726f76656420666f7220616c6c0000000000000000602082015250565b7f4552433732313a2062616c616e636520717565727920666f7220746865207a6560008201527f726f206164647265737300000000000000000000000000000000000000000000602082015250565b7f4552433732313a206f776e657220717565727920666f72206e6f6e657869737460008201527f656e7420746f6b656e0000000000000000000000000000000000000000000000602082015250565b7f4552433732313a206d696e7420746f20746865207a65726f2061646472657373600082015250565b7f4e6f206574686572206c65667420746f20776974686472617700000000000000600082015250565b7f4552433732313a20617070726f76656420717565727920666f72206e6f6e657860008201527f697374656e7420746f6b656e0000000000000000000000000000000000000000602082015250565b7f4f776e61626c653a2063616c6c6572206973206e6f7420746865206f776e6572600082015250565b7f4552433732314d657461646174613a2055524920717565727920666f72206e6f60008201527f6e6578697374656e7420746f6b656e0000000000000000000000000000000000602082015250565b7f4552433732313a20617070726f76616c20746f2063757272656e74206f776e6560008201527f7200000000000000000000000000000000000000000000000000000000000000602082015250565b7f596f75206861766520726563656976656420746865206d6178696d756d20616d60008201527f6f756e74206f66204e46547320616c6c6f7765642e0000000000000000000000602082015250565b50565b7f5472616e73666572206661696c65642e00000000000000000000000000000000600082015250565b7f4552433732313a207472616e736665722063616c6c6572206973206e6f74206f60008201527f776e6572206e6f7220617070726f766564000000000000000000000000000000602082015250565b7f5468697320636f6c6c656374696f6e20697320736f6c64206f75742100000000600082015250565b7f455243373231456e756d657261626c653a20676c6f62616c20696e646578206f60008201527f7574206f6620626f756e64730000000000000000000000000000000000000000602082015250565b613fbf816136d2565b8114613fca57600080fd5b50565b613fd6816136e4565b8114613fe157600080fd5b50565b613fed816136f0565b8114613ff857600080fd5b50565b6140048161373c565b811461400f57600080fd5b5056fea2646970667358221220d1d8db8b193f81c978465f62873662830cec622b6162a66813c317c01d9ab8e964736f6c63430008060033",
  "immutableReferences": {},
  "source": "//SPDX-License-Identifier: MIT\npragma solidity ^0.8.0;\n\nimport \"@openzeppelin/contracts/utils/Counters.sol\";\nimport \"@openzeppelin/contracts/access/Ownable.sol\";\nimport \"@openzeppelin/contracts/utils/math/SafeMath.sol\";\nimport \"@openzeppelin/contracts/token/ERC721/extensions/ERC721Enumerable.sol\";\n\ncontract NFTCollection is ERC721Enumerable, Ownable {\n    using SafeMath for uint256;\n    using Counters for Counters.Counter;\n    \n    Counters.Counter private _tokenIds;\n    //uppy amount for you collection\n    uint public constant MAX_SUPPLY = 100;\n    //mint price for you collection\n    uint public constant PRICE = 0.00001 ether;\n    //max unit per wallet\n    uint public constant MAX_PER_MINT = 5;\n    \n    string public baseTokenURI;\n    \n    constructor(string memory baseURI, string memory name, string memory symbol) ERC721(name, symbol) {\n        setBaseURI(baseURI);\n    }\n\n\n    function _baseURI() internal view virtual override returns (string memory) {\n        return baseTokenURI;\n    }\n    \n    function setBaseURI(string memory _baseTokenURI) public onlyOwner {\n        baseTokenURI = _baseTokenURI;\n    }\n    \n    function mintNFTs(uint _count) public payable {\n        uint totalMinted = _tokenIds.current();\n\n        require(totalMinted.add(_count) <= MAX_SUPPLY, \"This collection is sold out!\");\n        require(_count >0 && _count <= MAX_PER_MINT, \"You have received the maximum amount of NFTs allowed.\");\n        require(msg.value >= PRICE.mul(_count), \"Not enough ether to purchase NFTs.\");\n\n        for (uint i = 0; i < _count; i++) {\n            _mintSingleNFT();\n        }\n    }\n    \n    function _mintSingleNFT() private {\n        uint newTokenID = _tokenIds.current();\n        _safeMint(msg.sender, newTokenID);\n        _tokenIds.increment();\n    }\n    \n    function tokensOfOwner(address _owner) external view returns (uint[] memory) {\n\n        uint tokenCount = balanceOf(_owner);\n        uint[] memory tokensId = new uint256[](tokenCount);\n\n        for (uint i = 0; i < tokenCount; i++) {\n            tokensId[i] = tokenOfOwnerByIndex(_owner, i);\n        }\n        return tokensId;\n    }\n    \n    function withdraw() public payable onlyOwner {\n        uint balance = address(this).balance;\n        require(balance > 0, \"No ether left to withdraw\");\n\n        (bool success, ) = (msg.sender).call{value: balance}(\"\");\n        require(success, \"Transfer failed.\");\n    }\n    \n}\n    // this function allows you to reserve NFTs and can onlybe calle by owner\n    // function reserveNFTs() public onlyOwner {\n    //     uint totalMinted = _tokenIds.current();\n\n    //     require(totalMinted.add(10) < MAX_SUPPLY, \"Not enough NFTs left to reserve\");\n\n    //     for (uint i = 0; i < 10; i++) {\n    //         _mintSingleNFT();\n    //     }\n    // }\n",
  "sourcePath": "/Users/leefaria/code/reprod/2022/04/05/nft-box/nft-box/contracts/NFTCollection.sol",
  "compiler": {
    "name": "solc",
    "version": "0.8.6+commit.11564f7e.Emscripten.clang"
  },
  "schemaVersion": "3.4.6",
  "updatedAt": "2022-04-05T15:56:51.559Z",
  "networkType": "ethereum",
  "devdoc": {
    "kind": "dev",
    "methods": {
      "approve(address,uint256)": {
        "details": "See {IERC721-approve}."
      },
      "balanceOf(address)": {
        "details": "See {IERC721-balanceOf}."
      },
      "getApproved(uint256)": {
        "details": "See {IERC721-getApproved}."
      },
      "isApprovedForAll(address,address)": {
        "details": "See {IERC721-isApprovedForAll}."
      },
      "name()": {
        "details": "See {IERC721Metadata-name}."
      },
      "owner()": {
        "details": "Returns the address of the current owner."
      },
      "ownerOf(uint256)": {
        "details": "See {IERC721-ownerOf}."
      },
      "renounceOwnership()": {
        "details": "Leaves the contract without owner. It will not be possible to call `onlyOwner` functions anymore. Can only be called by the current owner. NOTE: Renouncing ownership will leave the contract without an owner, thereby removing any functionality that is only available to the owner."
      },
      "safeTransferFrom(address,address,uint256)": {
        "details": "See {IERC721-safeTransferFrom}."
      },
      "safeTransferFrom(address,address,uint256,bytes)": {
        "details": "See {IERC721-safeTransferFrom}."
      },
      "setApprovalForAll(address,bool)": {
        "details": "See {IERC721-setApprovalForAll}."
      },
      "supportsInterface(bytes4)": {
        "details": "See {IERC165-supportsInterface}."
      },
      "symbol()": {
        "details": "See {IERC721Metadata-symbol}."
      },
      "tokenByIndex(uint256)": {
        "details": "See {IERC721Enumerable-tokenByIndex}."
      },
      "tokenOfOwnerByIndex(address,uint256)": {
        "details": "See {IERC721Enumerable-tokenOfOwnerByIndex}."
      },
      "tokenURI(uint256)": {
        "details": "See {IERC721Metadata-tokenURI}."
      },
      "totalSupply()": {
        "details": "See {IERC721Enumerable-totalSupply}."
      },
      "transferFrom(address,address,uint256)": {
        "details": "See {IERC721-transferFrom}."
      },
      "transferOwnership(address)": {
        "details": "Transfers ownership of the contract to a new account (`newOwner`). Can only be called by the current owner."
      }
    },
    "version": 1
  },
  "userdoc": {
    "kind": "user",
    "methods": {},
    "version": 1
  }
}